:020000040000FA
:100000000C9462000C948A000C948A000C948A0070
:100010000C948A000C948A000C948A000C948A0038
:100020000C948A000C948A000C948A000C948A0028
:100030000C948A000C948A000C948A000C948A0018
:100040000C94D3020C948A000C948A000C948A00BD
:100050000C948A000C948A000C948A000C948A00F8
:100060000C948A000C948A000000000023002600F3
:10007000290000000000240027002A0000000000E2
:10008000250028002B0004040404040404040202D4
:100090000202020203030303030301020408102007
:1000A0004080010204081020010204081020000012
:1000B0000008000201000003040700000000000027
:1000C0000000B50411241FBECFEFD8E0DEBFCDBFC6
:1000D00011E0A0E0B1E0E2E7FEE002C005900D9281
:1000E000AC32B107D9F721E0ACE2B1E001C01D921A
:1000F000A135B207E1F710E0C2E6D0E004C02197D5
:10010000FE010E943107C136D107C9F70E94620380
:100110000C9437070C94000090E0FC01E255FF4F6F
:100120002491FC01E656FF4F3491FC01EA57FF4F42
:10013000E491EE23C9F0222339F0233001F1A8F431
:10014000213019F1223029F1F0E0EE0FFF1FE458C1
:10015000FF4FA591B4918FB7F894EC91611126C02F
:1001600030953E233C938FBF08952730A9F0283067
:10017000C9F0243049F7809180008F7D03C08091C1
:1001800080008F7780938000DFCF84B58F7784BD28
:10019000DBCF84B58F7DFBCF8091B0008F778093CC
:1001A000B000D2CF8091B0008F7DF9CF3E2BDACF57
:1001B000CF93DF9390E0FC01E656FF4F24918A57DE
:1001C0009F4FFC0184918823D1F090E0880F991F04
:1001D000FC01EE58FF4FA591B491FC01E458FF4F8C
:1001E000C591D49161110EC09FB7F8948C91E22F04
:1001F000E0958E238C932881E223E8839FBFDF91D3
:10020000CF9108958FB7F894EC91E22BEC938FBFC8
:10021000F6CFAF92BF92CF92DF92EF92FF920F9301
:100220001F93CF93DF936C017B018B01040F151F8C
:10023000EB015E01AE18BF08C017D10759F06991F4
:10024000D601ED91FC910190F081E02DC601099558
:10025000892B79F7C501DF91CF911F910F91FF9005
:10026000EF90DF90CF90BF90AF900895089590E009
:1002700080E00895FC0101900020E9F73197AF017B
:10028000481B590BBC0189E391E00C9409018F9242
:100290009F92AF92BF920F931F93CF93DF93CDB7EF
:1002A000DEB7A1970FB6F894DEBF0FBECDBF19A27F
:1002B000423008F44AE08E010F5D1F4F842E912CCE
:1002C000B12CA12CA50194010E940F07E62FB901C2
:1002D000CA01EA30F4F4E05DD801EE938D01232BDE
:1002E000242B252B79F790E080E0109719F0CD01B1
:1002F0000E943A01A1960FB6F894DEBF0FBECDBFA3
:10030000DF91CF911F910F91BF90AF909F908F90F1
:100310000895E95CE1CFCF93DF93EC0160E08E813B
:100320000E948C0061E08E810E948C0060E08E81D2
:100330000E948C008BE891E00197F1F7DF91CF915B
:100340000895CF92DF92EF92FF920F931F93CF9376
:10035000DF936C017C0187E0E80EF11CD0E0C0E087
:10036000062F10E0B8010C2E02C0759567950A940F
:10037000E2F76170F70181917F010E948C00219664
:10038000C430D10579F7C601DF91CF911F910F914C
:10039000FF90EF90DF90CF900C948B01CF92DF9283
:1003A000EF92FF920F931F93CF93DF93EC01F62E02
:1003B000642F8C810E948C008D818F3F19F060E04A
:1003C0000E948C000F2D10E08F8584FF25C06E01E8
:1003D00087E0C80ED11CF12CE12CB8010E2C02C014
:1003E000759567950A94E2F76170F60181916F0146
:1003F0000E948C00FFEFEF1AFF0A88E0E816F10474
:1004000061F7CE01DF91CF911F910F91FF90EF9097
:10041000DF90CF900C948B01B80184E075956795BF
:100420008A95E1F7CE010E94A1016F2DCE01DF91E7
:10043000CF911F910F91FF90EF90DF90CF900C9490
:10044000A10140E0682F89E391E00C94CE01CF93A5
:10045000DF93823029F4909148019860909348018D
:1004600080934C0110924D0180E480934E0180E115
:1004700080934F0180E58093500161E080913D01C0
:100480000E94D80080913E018F3F19F061E00E94E8
:10049000D80061E080913F010E94D800C9E3D1E01B
:1004A0009E01295331408091480184FD0BC084E0B6
:1004B00090E021962817390744F461E08E810E946C
:1004C000D800EECF88E090E0F4CF8BE39DE0019779
:1004D000F1F760E080913D010E948C0060E0809126
:1004E0003F010E948C0080913E018F3F19F060E037
:1004F0000E948C008091480184FD39C063E089E34B
:1005000091E00E94A101CBE4D6E4CE010197F1F77E
:1005100063E089E391E00E94A1012197F1F763E094
:1005200089E391E00E94A10183E592E00197F1F750
:1005300062E089E391E00E94A1018091480180621C
:100540000E94210284E0809349018CE00E942102F4
:1005500081E00E9421028BE39FE10197F1F782E0A5
:1005600080934A0186E0DF91CF910C942102806252
:100570000E9421028BE496E40197F1F780914801F3
:1005800080620E94210283E592E00197F1F7809159
:10059000480180620E942102D0CF41E00E94CE013A
:1005A00081E090E008951F920F920FB60F921124F0
:1005B0002F933F938F939F93AF93BF938091350178
:1005C00090913601A0913701B091380130913401FA
:1005D00023E0230F2D3758F50196A11DB11D20935F
:1005E00034018093350190933601A0933701B09385
:1005F00038018091300190913101A0913201B09188
:1006000033010196A11DB11D8093300190933101FA
:10061000A0933201B0933301BF91AF919F918F911D
:100620003F912F910F900FBE0F901F90189526E8C5
:10063000230F0296A11DB11DD2CFCF92DF92EF9270
:10064000FF920F931F93E82FF92F05C00150110956
:100650002109310961F1908196239417B9F305C0FE
:10066000015011092109310911F190819623941348
:10067000F7CFC12CD12CE12CF12C0AC08FEFC81A76
:10068000D80AE80AF80A0C151D052E053F0579F071
:1006900080818623841791F36C2D7D2D8E2D9F2DC7
:1006A0001F910F91FF90EF90DF90CF90089560E041
:1006B00070E080E090E01F910F91FF90EF90DF904D
:1006C000CF900895789484B5826084BD84B58160AC
:1006D00084BD85B5826085BD85B5816085BD80910D
:1006E0006E00816080936E00109281008091810085
:1006F000826080938100809181008160809381007D
:10070000809180008160809380008091B10084603E
:100710008093B1008091B00081608093B00080919F
:100720007A00846080937A0080917A00826080935E
:100730007A0080917A00816080937A0080917A00BB
:10074000806880937A001092C10060E089E00E9486
:10075000D80061E08AE00E94D80082E00E9427026F
:100760008CE091E00E943A01CFE0D0E093E2A92E24
:10077000B12C2FE8222E20E0322E30E0832E30E004
:10078000932E60E08AE00E948C00CE010197F1F781
:1007900061E08AE00E948C00C5010197F1F760E0FA
:1007A0008AE00E948C00E3EAF0E06491F101849118
:1007B000E82FF0E0EE0FFF1FE859FF4F859194916D
:1007C00000E412E42FE030E0462F0E941D03611583
:1007D00071058105910529F06F5F7F4F8F4F9F4F06
:1007E0009F700E94E60520E030E048E652E40E9457
:1007F00045056B017C01C0922C01D0922D01E09245
:100800002E01F0922F01E0914C01E23068F5E150A9
:10081000F0E0E75CFE4F848980680E942102A70116
:100820009601C701B6010E940A078823F9F08CE1FE
:1008300091E00E943A01E0914C01E23008F093C04F
:10084000E150F0E0E75CFE4F84898A5F80680E9497
:10085000210288E291E00E943A018114910409F496
:1008600090CF0E9400008DCFE1E0D2CF2FEF3FEF7D
:100870004FE75FE7C701B6010E940A0781110DC06B
:100880002FEF3FEF4FE75FE7C701B6010E9440053A
:1008900018161CF480E291E0CCCF2FEF3FEF4FE72A
:1008A0005FE4C701B6010E94980618161CF484E2A2
:1008B00091E0BFCF2FEF3FEF4FE75FECC701B601ED
:1008C0000E94400587FDF3CF2AE037ED43EA5BE362
:1008D000C701B6010E94D4042B013C010E94B70558
:1008E0006B017C010E94E6059B01AC01C301B201D2
:1008F0000E94D3042B013C014AE0C701B6010E94CB
:10090000470141E06EE289E391E00E94CE0120E0E0
:1009100030E040E251E4C301B2010E949D062B0188
:100920003C010E94B7056B01F12CE12C4AE0C701A4
:10093000B6010E944701C701B6010E94E6059B016E
:10094000AC01C301B2010E94D30420E030E040E2D8
:1009500051E40E949D060E94B70590E080E04AE0C5
:100960000E94470168CFE1E06CCFE9E3F1E0138238
:10097000128284E091E09183808387E084838FEF0B
:10098000858386E0868385E0878384E0808783E0B3
:10099000818782E0828713861486158616861786DD
:1009A00081E00C9427025058BB27AA270E94EB0431
:1009B0000C945E060E94500638F00E94570620F004
:1009C00039F49F3F19F426F40C944D060EF4E0958B
:1009D000E7FB0C944706E92F0E946F0658F3BA17FD
:1009E000620773078407950720F079F4A6F50C9445
:1009F00091060EF4E0950B2EBA2FA02D0B01B90134
:100A000090010C01CA01A0011124FF27591B99F084
:100A1000593F50F4503E68F11A16F040A22F232F90
:100A2000342F4427585FF3CF469537952795A795E0
:100A3000F0405395C9F77EF41F16BA0B620B730B87
:100A4000840BBAF09150A1F0FF0FBB1F661F771FF8
:100A5000881FC2F70EC0BA0F621F731F841F48F4AD
:100A6000879577956795B795F7959E3F08F0B0CF36
:100A70009395880F08F09927EE0F9795879508951D
:100A80000E94230608F481E008950E9459050C9401
:100A90005E060E94570658F00E94500640F029F466
:100AA0005F3F29F00C94470651110C9492060C9468
:100AB0004D060E946F0668F39923B1F3552391F315
:100AC000951B550BBB27AA2762177307840738F0BD
:100AD0009F5F5F4F220F331F441FAA1FA9F335D01A
:100AE0000E2E3AF0E0E832D091505040E695001CCE
:100AF000CAF72BD0FE2F29D0660F771F881FBB1F88
:100B0000261737074807AB07B0E809F0BB0B802D65
:100B1000BF01FF2793585F4F3AF09E3F510578F091
:100B20000C9447060C9492065F3FE4F3983ED4F38E
:100B3000869577956795B795F7959F5FC9F7880F65
:100B4000911D9695879597F90895E1E0660F771FB7
:100B5000881FBB1F621773078407BA0720F0621B48
:100B6000730B840BBA0BEE1F88F7E09508950E9473
:100B7000770688F09F5798F0B92F9927B751B0F0B2
:100B8000E1F0660F771F881F991F1AF0BA95C9F711
:100B900014C0B13091F00E949106B1E008950C9418
:100BA0009106672F782F8827B85F39F0B93FCCF3CB
:100BB000869577956795B395D9F73EF4909580958E
:100BC000709561957F4F8F4F9F4F0895E89409C0AE
:100BD00097FB3EF490958095709561957F4F8F4F70
:100BE0009F4F9923A9F0F92F96E9BB279395F69586
:100BF000879577956795B795F111F8CFFAF4BB0F04
:100C000011F460FF1BC06F5F7F4F8F4F9F4F16C067
:100C1000882311F096E911C0772321F09EE8872FF1
:100C2000762F05C0662371F096E8862F70E060E0AD
:100C30002AF09A95660F771F881FDAF7880F969526
:100C4000879597F90895990F0008550FAA0BE0E8CA
:100C5000FEEF16161706E807F907C0F0121613067E
:100C6000E407F50798F0621B730B840B950B39F4BE
:100C70000A2661F0232B242B252B21F408950A2624
:100C800009F4A140A6958FEF811D811D089597F964
:100C90009F6780E870E060E008959FEF80EC089522
:100CA00000240A941616170618060906089500244B
:100CB0000A9412161306140605060895092E0394C5
:100CC000000C11F4882352F0BB0F40F4BF2B11F439
:100CD00060FF04C06F5F7F4F8F4F9F4F089557FD98
:100CE0009058440F551F59F05F3F71F04795880F9A
:100CF00097FB991F61F09F3F79F087950895121631
:100D000013061406551FF2CF4695F1DF08C01616DC
:100D100017061806991FF1CF86957105610508948D
:100D20000895E894BB2766277727CB0197F90895A4
:100D30000E94230608F48FEF08950E94B0060C94D9
:100D40005E060E94500638F00E94570620F0952358
:100D500011F00C9447060C944D0611240C94920645
:100D60000E946F0670F3959FC1F3950F50E0551FD9
:100D7000629FF001729FBB27F00DB11D639FAA27F0
:100D8000F00DB11DAA1F649F6627B00DA11D661F3F
:100D9000829F2227B00DA11D621F739FB00DA11D60
:100DA000621F839FA00D611D221F749F3327A00D1A
:100DB000611D231F849F600D211D822F762F6A2FB6
:100DC00011249F5750409AF0F1F088234AF0EE0F1B
:100DD000FF1FBB1F661F771F881F91505040A9F748
:100DE0009E3F510580F00C9447060C9492065F3F9D
:100DF000E4F3983ED4F3869577956795B795F79584
:100E0000E7959F5FC1F7FE2B880F911D96958795FB
:100E100097F908950E942306880B990B0895A1E283
:100E20001A2EAA1BBB1BFD010DC0AA1FBB1FEE1F64
:100E3000FF1FA217B307E407F50720F0A21BB30BAF
:100E4000E40BF50B661F771F881F991F1A9469F72B
:100E500060957095809590959B01AC01BD01CF0187
:100E60000895EE0FFF1F0590F491E02D0994F8947A
:100E7000FFCF00000000CD020901370136015468A0
:100E8000652064697374616E6365206973006E61C7
:0E0E90006E00696E66006F766600636D00008E
:107E0000112484B714BE81FFF0D085E080938100F7
:107E100082E08093C00088E18093C10086E0809377
:107E2000C20080E18093C4008EE0C9D0259A86E02C
:107E300020E33CEF91E0309385002093840096BBD3
:107E4000B09BFECF1D9AA8958150A9F7CC24DD24C4
:107E500088248394B5E0AB2EA1E19A2EF3E0BF2EE7
:107E6000A2D0813461F49FD0082FAFD0023811F036
:107E7000013811F484E001C083E08DD089C08234E0
:107E800011F484E103C0853419F485E0A6D080C0E4
:107E9000853579F488D0E82EFF2485D0082F10E0AE
:107EA000102F00270E291F29000F111F8ED06801E7
:107EB0006FC0863521F484E090D080E0DECF843638
:107EC00009F040C070D06FD0082F6DD080E0C81688
:107ED00080E7D80618F4F601B7BEE895C0E0D1E017
:107EE00062D089930C17E1F7F0E0CF16F0E7DF06D8
:107EF00018F0F601B7BEE89568D007B600FCFDCFD4
:107F0000A601A0E0B1E02C9130E011968C91119780
:107F100090E0982F8827822B932B1296FA010C0160
:107F200087BEE89511244E5F5F4FF1E0A038BF0790
:107F300051F7F601A7BEE89507B600FCFDCF97BE46
:107F4000E89526C08437B1F42ED02DD0F82E2BD052
:107F50003CD0F601EF2C8F010F5F1F4F84911BD097
:107F6000EA94F801C1F70894C11CD11CFA94CF0C13
:107F7000D11C0EC0853739F428D08EE10CD085E9AC
:107F80000AD08FE07ACF813511F488E018D01DD067
:107F900080E101D065CF982F8091C00085FFFCCF94
:107FA0009093C60008958091C00087FFFCCF809118
:107FB000C00084FD01C0A8958091C6000895E0E648
:107FC000F0E098E1908380830895EDDF803219F02E
:107FD00088E0F5DFFFCF84E1DECF1F93182FE3DFCA
:107FE0001150E9F7F2DF1F91089580E0E8DFEE27F6
:047FF000FF270994CA
:027FFE00040479
:00000001FF
