:020000040000FA
:100000000C9463000C948B000C948B000C948B006C
:100010000C948B000C948B000C948B000C948B0034
:100020000C948B000C948B000C948B000C949E040D
:100030000C948B000C948B000C948B000C948B0014
:100040000C94FC030C948B000C946C040C944604EC
:100050000C948B000C948B000C948B000C948B00F4
:100060000C948B000C948B000000000024002700EF
:100070002A0000000000250028002B0000000000DE
:1000800023002600290004040404040404040202DA
:100090000202020203030303030301020408102007
:1000A0004080010204081020010204081020000012
:1000B0000008000201000003040700000000000027
:1000C00000009605640911241FBECFEFD8E0DEBF03
:1000D000CDBF11E0A0E0B1E0E2E5F8E102C005909B
:1000E0000D92AC37B107D9F722E0ACE7B1E001C01F
:1000F0001D92AC3CB207E1F710E0C2E6D0E004C0CC
:100100002197FE010E941B0AC136D107C9F70E9440
:100110004B060C941C0C0C940000CF92DF92EF92D3
:10012000FF92DC01A03282E0B807D4F5A53BB1050F
:1001300014F0A4EBB0E04091C60228E830E0241BA4
:10014000310947FD3395220F331F220F331F6901F9
:10015000330FEE08FF084091C70228E532E0241B68
:10016000310947FD3395220F331F220F331F032E12
:10017000000C440B550B2C193D094E095F09B7FFC4
:1001800002C0B0E0A0E00E949F0924EB30E040E014
:1001900050E00E947509C20ED31EE41EF51ED60162
:1001A000E091C502EC3080F52091C60288E890E02D
:1001B000821B910927FD9395880F991F880F991F1E
:1001C000A817B90784F02091C70288E592E0821B46
:1001D000910927FD9395880F991F880F991FA817DC
:1001E000B9070CF4CD010297880F991F4FB7F89407
:1001F0002E2F30E0F901EE0FFF1FE20FF31FEB5D32
:10020000FD4F928381834FBFFF90EF90DF90CF909F
:10021000089596E0899FD0011124A65BBD4F90966A
:100220007C936E935F9791E091969C939197E09168
:10023000B702F091B8029091B602992339F0309745
:1002400051F0811108C0809166020994309719F02D
:100250005C968C91FACF0895CF92DF92EF92FF9245
:100260000F931F9396E0899FF0011124E65BFD4FE9
:1002700011A2278D30A12130310551F178F02230C3
:10028000310509F451C02330310509F452C01F91E2
:100290000F91FF90EF90DF90CF9008956623B9F310
:1002A00061E070E00E9409012FB7F8948091840109
:1002B00090918501A0918601B09187012FBF809315
:1002C000A2029093A302A093A402B093A502DFCF51
:1002D0009FB7F894C0908401D0908501E09086018A
:1002E000F09087019FBF0091A2021091A30220917C
:1002F000A4023091A502C01AD10AE20AF30A0091C1
:10030000B4021091B50230E020E00C151D052E0559
:100310003F0550F462E070E01F910F91FF90EF9065
:10032000DF90CF900C9409016111B1CF63E070E0D0
:10033000F3CF70E060E0F0CF833081F028F48130BB
:1003400099F08230A9F008958730A9F08830C9F07B
:100350008430B1F4809180008F7D03C08091800053
:100360008F7780938000089584B58F7784BD08953A
:1003700084B58F7DFBCF8091B0008F778093B000E4
:1003800008958091B0008F7DF9CFCF93DF93282F10
:1003900030E0F901E255FF4F8491F901E656FF4F35
:1003A000D491F901EA57FF4FC491CC23A1F08111F8
:1003B0000E949C01EC2FF0E0EE0FFF1FE458FF4F6E
:1003C000A591B491EC91ED2381E090E009F480E0F7
:1003D000DF91CF91089580E090E0FACF1F93CF9303
:1003E000DF93282F30E0F901E255FF4F8491F901A6
:1003F000E656FF4FD491F901EA57FF4FC491CC2341
:10040000A9F0162F81110E949C01EC2FF0E0EE0F55
:10041000FF1FEE58FF4FA591B4918FB7F894EC9160
:10042000111108C0D095DE23DC938FBFDF91CF91EF
:100430001F910895DE2BF8CFCF93DF9390E0FC015E
:10044000E656FF4F24918A579F4FFC0184918823E1
:10045000C9F090E0880F991FFC01E859FF4FA59162
:10046000B491FC01EE58FF4FC591D49161110DC0BC
:100470009FB7F8948C91209582238C9388812823B0
:1004800028839FBFDF91CF910895623051F49FB7C9
:10049000F8943C91822F809583238C93E8812E2BB6
:1004A000EFCF8FB7F894EC912E2B2C938FBFEACF20
:1004B0003FB7F8948091800190918101A0918201D1
:1004C000B091830126B5A89B05C02F3F19F0019676
:1004D000A11DB11D3FBFBA2FA92F982F8827BC019E
:1004E000CD01620F711D811D911D42E0660F771FC6
:1004F000881F991F4A95D1F708958F929F92AF92C6
:10050000BF92CF92DF92EF92FF924B015C010E946B
:1005100058026B017C010E9458026C197D098E09FA
:100520009F09683E734081059105A8F321E0821A76
:100530009108A108B10888EEC80E83E0D81EE11C1E
:10054000F11C81149104A104B10429F7FF90EF90EC
:10055000DF90CF90BF90AF909F908F900895862F9F
:10056000642F0C941C02862F642F0C94EE01862FAE
:100570000C94C501AF92BF92CF92DF92EF92FF929F
:100580000F931F93CF93DF936C017B018B01040FBB
:10059000151FEB015E01AE18BF08C017D10759F057
:1005A0006991D601ED91FC910190F081E02DC60199
:1005B0000995892B79F7C501DF91CF911F910F9193
:1005C000FF90EF90DF90CF90BF90AF900895FC0127
:1005D000538D448D252F30E0842F90E0821B930BA8
:1005E000541710F0CF96089501970895FC01918D4E
:1005F000828D981761F0A28DAE0FBF2FB11D5D9651
:100600008C91928D9F5F9F73928F90E008958FEFF2
:100610009FEF0895FC01918D828D981731F0828DA6
:10062000E80FF11D858D90E008958FEF9FEF0895FD
:10063000FC01918D228D892F90E0805C9F4F821B61
:1006400091098F739927089588E891E00E94180313
:1006500021E0892B09F420E0822F089580E090E0CA
:10066000892B29F00E94240381110C940000089525
:10067000FC01A48DA80FB92FB11DA35ABF4F2C9117
:10068000848D90E001968F739927848FA689B7890E
:100690002C93A089B1898C91837080648C93938D05
:1006A000848D981306C00288F389E02D80818F7DA8
:1006B00080830895EF92FF920F931F93CF93DF9360
:1006C000EC0181E0888F9B8D8C8D98131AC0E8898E
:1006D000F989808185FF15C09FB7F894EE89FF895D
:1006E0006083E889F98980818370806480839FBFFB
:1006F00081E090E0DF91CF911F910F91FF90EF90FB
:100700000895F62E0B8D10E00F5F1F4F0F7311270A
:10071000E02E8C8D8E110CC00FB607FCFACFE88945
:10072000F989808185FFF5CFCE010E943803F1CF92
:10073000EB8DEC0FFD2FF11DE35AFF4FF0829FB7B9
:10074000F8940B8FEA89FB8980818062CFCFCF93A9
:10075000DF93EC01888D8823B9F0AA89BB89E889E9
:10076000F9898C9185FD03C0808186FD0DC00FB68F
:1007700007FCF7CF8C9185FFF2CF808185FFEDCF0D
:10078000CE010E943803E9CFDF91CF910895FC019B
:1007900001900020E9F73197AF01481B590BBC01CC
:1007A00088E891E00C94BA020F931F93CF93DF93E4
:1007B000EC0188819981009759F02A813B812617A5
:1007C000370730F081E0DF91CF911F910F910895AD
:1007D0008B016F5F7F4F0E94460B009759F0998302
:1007E00088831B830A832C813D81232B59F7FC01CD
:1007F0001082E8CF80E0E7CF1F920F920FB60F92E2
:1008000011242F933F938F939F93AF93BF93809126
:10081000840190918501A0918601B091870130916A
:100820007F0123E0230F2D3758F50196A11DB11D3F
:1008300020937F018093840190938501A09386018A
:10084000B09387018091800190918101A0918201F4
:10085000B09183010196A11DB11D809380019093F9
:100860008101A0938201B0938301BF91AF919F91C9
:100870008F913F912F910F900FBE0F901F90189561
:1008800026E8230F0296A11DB11DD2CF1F920F9211
:100890000FB60F9211242F933F934F935F936F9353
:1008A0007F938F939F93AF93BF93EF93FF9388E8CA
:1008B00091E00E943803FF91EF91BF91AF919F911A
:1008C0008F917F916F915F914F913F912F910F90F9
:1008D0000FBE0F901F9018951F920F920FB60F9298
:1008E00011242F938F939F93EF93FF93E09198019F
:1008F000F09199018081E0919E01F0919F0182FD2C
:100900001BC090818091A1018F5F8F732091A20104
:10091000821741F0E091A101F0E0E857FE4F958F7A
:100920008093A101FF91EF919F918F912F910F9053
:100930000FBE0F901F9018958081F4CF1F920F92D9
:100940000FB60F9211242F933F934F935F936F93A2
:100950007F938F939F93AF93BF93CF93DF93EF9347
:10096000FF9380917C01C0914902D0E087FF24C0B1
:10097000109285001092840080917C018F5F80939B
:100980007C0180917C01082E000C990B8C179D072F
:1009900024F480917C018C30C4F18091840090918A
:1009A0008500049680349C4908F47AC080918400C4
:1009B00090918500049676C080917C01082E000CF1
:1009C000990B8C179D07C4F6E0917C018E2FEE0FDA
:1009D000990BFC01EE0FFF1FE80FF91FEB5DFD4FB8
:1009E000808186FFC9CFE0917C018E2FEE0F990B9D
:1009F000FC01EE0FFF1FE80FF91FEB5DFD4F80813B
:100A000060E08F730E94EE01B7CF20918400309197
:100A10008500E0917C018E2FEE0F990BFC01EE0F0B
:100A2000FF1FE80FF91FEB5DFD4F81819281820F5F
:100A3000931F9093890080938800E0917C018E2F12
:100A4000EE0F990BFC01EE0FFF1FE80FF91FEB5D96
:100A5000FD4F808186FF11C0E0917C018E2FEE0F4B
:100A6000990BFC01EE0FFF1FE80FF91FEB5DFD4F27
:100A7000808161E08F730E94EE01FF91EF91DF9121
:100A8000CF91BF91AF919F918F917F916F915F9126
:100A90004F913F912F910F900FBE0F901F9018957F
:100AA00080E49CE990938900809388008FEF809385
:100AB0007C01E3CFEF92FF920F931F93CF93DF93CD
:100AC000EC017B01198218821B821A821D821C8212
:100AD000FB0101900020E9F731978F01061B170BEE
:100AE000B8010E94D40328813981811113C02115D6
:100AF000310519F0C9010E94BD0A198218821D82B0
:100B00001C821B821A82DF91CF911F910F91FF905F
:100B1000EF9008951D830C83B701C901DF91CF9138
:100B20001F910F91FF90EF900C94150C10928B0178
:100B300010928A0188EE93E0A0E0B0E080938C01EF
:100B400090938D01A0938E01B0938F018DE191E080
:100B5000909389018093880185EC90E090939501B2
:100B60008093940184EC90E0909397018093960198
:100B700080EC90E0909399018093980181EC90E053
:100B800090939B0180939A0182EC90E090939D0159
:100B900080939C0186EC90E090939F0180939E014E
:100BA0001092A1011092A2011092A3011092A4012F
:100BB000809149028C3008F06AC091E0980F9093C0
:100BC00049028093C50290E0FC01EE0FFF1FE80F81
:100BD000F91FEB5DFD4F88EB9BE09283818364E519
:100BE00071E08FEB92E00E945A0565E371E089EBBA
:100BF00092E00E945A0510924C02109250021092FC
:100C00004F02109251028FE291E090934B02809339
:100C10004A02E6E6F2E010821482138215823696CA
:100C200082E0E23AF807B9F783E091E09093AD02F1
:100C30008093AC0280E091E09093AF028093AE028B
:100C400084E08093B00283E08093B10287E091E07A
:100C50009093AB028093AA028AE090E09093B30253
:100C60008093B20284EF91E09093B5028093B40236
:100C70001092B8021092B7021092A6021092A70228
:100C80001092A8021092A9021092B60208958FEF56
:100C90008093C502A4CFCF93DF9300D0CDB7DEB74A
:100CA000789484B5826084BD84B5816084BD85B547
:100CB000826085BD85B5816085BD80916E00816053
:100CC00080936E00109281008091810082608093F9
:100CD00081008091810081608093810080918000FB
:100CE0008160809380008091B10084608093B10026
:100CF0008091B00081608093B00080917A00846020
:100D000080937A0080917A00826080937A0080914B
:100D10007A00816080937A0080917A008068809365
:100D20007A001092C10061E085E00E941C0280916F
:100D3000C5028C3008F051C061E086E00E941C02C0
:100D40008091C502282F30E0F901EE0FFF1FE20F5E
:100D5000F31FEB5DFD4F9081907C96609083109225
:100D6000C6021092C7022CE0622F0E940F0A829FD7
:100D7000B001112430E020E0AB01420F531FFA0113
:100D8000EE0FFF1FE40FF51FEB5DFD4F908196FD09
:100D900016C02F5F3F4F2C30310571F781110FC006
:100DA0001092800082E08093810010928500109262
:100DB0008400B19A80916F00826080936F00E0910F
:100DC000C5028E2F90E0FC01EE0FFF1FE80FF91F08
:100DD000EB5DFD4F808180648083E0919801F0910C
:100DE000990182E08083E0919401F0919501108255
:100DF000E0919601F09197018FEC80831092A00111
:100E0000E0919C01F0919D0186E08083E0919A0140
:100E1000F0919B01808180618083E0919A01F09143
:100E20009B01808188608083E0919A01F0919B0111
:100E3000808180688083E0919A01F0919B0180819C
:100E40008F7D80838CE391E00E94C703412C512C5D
:100E5000320143944AE5842E912C51E05093B6021E
:100E60008FB7F8944091840150918501609186017B
:100E7000709187018FBF8091A6029091A702A091E7
:100E8000A802B091A902481B590B6A0B7B0B8091F9
:100E9000B2029091B302B0E0A0E084179507A607D4
:100EA000B70708F046C110E08091B002181760F44F
:100EB000E091AC02F091AD02E10FF11D62E08081A2
:100EC0000E941C021F5FF0CF312C8091B1023816B6
:100ED00008F061C0E32CF12CE091AE02F091AF027A
:100EE000EE0DFF1D61E080810E941C02E091AE02C8
:100EF000F091AF02EE0DFF1D60E080810E94EE01D7
:100F0000D301C201032C04C0880F991FAA1FBB1F65
:100F10000A94D2F75C016C01C094D094212C80918A
:100F2000B002281608F5022D10E0E091AC02F09115
:100F3000AD02E00FF11F80810E94C5010C5F1F4FC1
:100F4000000F111FF801E65BFD4F892B41F48081F2
:100F500091818A299B29918380832394E0CF80818A
:100F600091818C219D21F7CFE091AE02F091AF02EB
:100F7000EE0DFF1D61E080810E94EE018091AE02C6
:100F80009091AF02E80EF91E60E0F70180810E94A7
:100F90001C0233949ACF0AE412E07801F701878D9E
:100FA00090A1892B31F4148E8FEF9FEF968F858F50
:100FB00011A296E0E90EF11CE6E8EE16E2E0FE066C
:100FC00069F7D12C8091B002D81608F053C0C12C1B
:100FD000AD2CB12CAA0CBB1CC5018E5A9D4F5C01D7
:100FE0002091B102C21608F043C0F5016081718101
:100FF0000C2C02C0769567950A94E2F7D29E900178
:1010000011242C0D311DEAE4F2E080E0458D568D6F
:101010002417350709F420C18F5F36968A30B1F75F
:1010200060FF24C0EAE4F2E090E080E0448D4111EA
:1010300018C0E091AA02F091AB02E20FF31F4081C9
:1010400056E0589FF001599FF00D1124E65BFD4FCB
:10105000448F368F258F10A2178E61E00E942C01DD
:1010600005C0019636968A30910501F7C394B8CF32
:10107000D394A8CF80E0F80191A19111892F0A5F44
:101080001F4FE016F106B9F79FB7F894409184011D
:101090005091850160918601709187019FBF4093B7
:1010A000A6025093A7026093A8027093A902882316
:1010B00009F43FC080916B028823D9F180916902C5
:1010C00090916A020197A9F510916602133209F412
:1010D0003FC0112381F18091C3029091C402069711
:1010E00050F5612F88E891E00E945A0319831A8213
:1010F0000091C3021091C4020F5F1F4FB8018FEB24
:1011000092E00E94D4038823B1F02091BF02309175
:10111000C0028091C3029091C402BE016F5F7F4FF5
:10112000820F931F0E94150C1093C4020093C302F8
:1011300002C01092B60280E090E0892B09F48DCEB7
:101140000E942403882309F488CE0E94000085CEE3
:1011500082E591E00E94C7032091C3023091C4024E
:101160008091BD029091BE0228173907C1F5809188
:10117000BF029091C0026091B9027091BA020097CB
:1011800009F46CC06115710539F4232B09F474C09E
:10119000FC01808190E06DC00E940C0C6AC060ED83
:1011A00077E080E090E00E947D0290927E01809244
:1011B0007D0100917D0110917E0117FD18C0C801CD
:1011C0000E948D006FE070E080E090E00E947D0260
:1011D0000150110910937E0100937D01EACF87E64B
:1011E00091E00E94C70382E591E00E94C70382E577
:1011F00091E00E94C7038CE391E00E94C70370E076
:1012000060E08FEB92E00E94D4032091BF02309106
:10121000C002811117C02115310519F0C9010E94C2
:10122000BD0A1092C0021092BF021092C402109226
:10123000C3021092C2021092C10260E085E00E94D7
:10124000EE0179CF1092C4021092C30264E571E0FE
:10125000C9010E94150CF1CF617000CF61157105B5
:1012600059F0232B49F0FB01808190E09195819505
:101270009109892B09F0B3CF85E591E00E94C7035E
:1012800082E591E00E94C70361E085E00E94EE01E3
:1012900010927E0110927D0100917D0110917E01DE
:1012A0000B3511050CF07BCFC8010E948D006FE05B
:1012B00070E080E090E00E947D020F5F1F4F10936E
:1012C0007E0100937D01E8CF8091B9029091BA022E
:1012D000009711F00E94BD0A8091BF029091C00258
:1012E000009711F00C94BD0A0895052E97FB1EF48B
:1012F00000940E948C0957FD07D00E94DE0907FC6C
:1013000003D04EF40C948C0950954095309521955E
:101310003F4F4F4F5F4F0895909580957095619521
:101320007F4F8F4F9F4F08950E94000AA59F900DF9
:10133000B49F900DA49F800D911D11240895B7FFB7
:101340000C9494090E949409821B930B08952F9288
:101350003F924F925F926F927F928F929F92AF9245
:10136000BF92CF92DF92EF92FF920F931F93CF9392
:10137000DF93CDB7DEB7CA1BDB0B0FB6F894DEBF29
:101380000FBECDBF09942A88398848885F846E844F
:101390007D848C849B84AA84B984C884DF80EE8099
:1013A000FD800C811B81AA81B981CE0FD11D0FB6A2
:1013B000F894DEBF0FBECDBFED010895A1E21A2E55
:1013C000AA1BBB1BFD010DC0AA1FBB1FEE1FFF1FE9
:1013D000A217B307E407F50720F0A21BB30BE40B39
:1013E000F50B661F771F881F991F1A9469F7609580
:1013F0007095809590959B01AC01BD01CF0108953A
:10140000A29FB001B39FC001A39F700D811D112445
:10141000911DB29F700D811D1124911D0895991B7E
:1014200079E004C0991F961708F0961B881F7A95DB
:10143000C9F780950895EE0FFF1F0590F491E02DF8
:1014400009940F931F93CF93DF938230910510F48B
:1014500082E090E0E091CA02F091CB0230E020E01F
:10146000B0E0A0E0309799F42115310509F44AC0A5
:10147000281B390B24303105D8F58A819B816115F1
:10148000710589F1FB0193838283FE0111C04081C4
:1014900051810281138148175907E0F04817590715
:1014A00099F4109761F012960C93129713961C936F
:1014B0003296CF01DF91CF911F910F910895009344
:1014C000CA021093CB02F4CF2115310551F0421717
:1014D000530738F0A901DB019A01BD01DF01F801D2
:1014E000C1CFEF01F9CF9093CB028093CA02CDCF49
:1014F000FE01E20FF31F819391932250310939834A
:101500002883D7CF2091C8023091C902232B41F400
:1015100020911501309116013093C9022093C80221
:1015200020911301309114012115310541F42DB79B
:101530003EB74091170150911801241B350BE091E3
:10154000C802F091C902E217F307A0F42E1B3F0B6B
:101550002817390778F0AC014E5F5F4F2417350725
:1015600048F04E0F5F1F5093C9024093C802819309
:1015700091939FCFF0E0E0E09CCFCF93DF93009773
:10158000E9F0FC01329713821282A091CA02B09155
:10159000CB02ED0130E020E01097A1F420813181F1
:1015A000820F931F2091C8023091C9022817390772
:1015B00009F061C0F093C902E093C802DF91CF91B6
:1015C0000895EA01CE17DF07E8F54A815B819E01A5
:1015D00041155105B1F7E901FB83EA83499159911E
:1015E000C40FD51FEC17FD0761F48081918102962D
:1015F000840F951FE90199838883828193819B835E
:101600008A83F0E0E0E012968D919C911397009709
:10161000B9F52D913C911197CD010296820F931F40
:101620002091C8023091C9022817390739F630973E
:1016300051F51092CB021092CA02B093C902A09346
:10164000C802BCCFD383C28340815181840F951FD0
:10165000C817D90761F44E5F5F4F88819981480FA1
:10166000591F518340838A819B81938382832115F3
:10167000310509F0B0CFF093CB02E093CA029ECFC0
:10168000FD01DC01C0CF13821282D7CFB0E0A0E011
:10169000ECE4FBE00C94A9098C01009751F4CB0118
:1016A0000E94210A8C01C801CDB7DEB7E0E10C949D
:1016B000C509FC01E60FF71F9C0122503109E21712
:1016C000F30708F49DC0D901CD91DC911197C6179D
:1016D000D70798F0C530D10530F3CE0104978617AF
:1016E000970708F3C61BD70B2297C193D1936D932D
:1016F0007C93CF010E94BD0AD6CF5B01AC1ABD0A14
:101700004C018C0E9D1EA091CA02B091CB02512CAF
:10171000412CF12CE12C109731F58091C802909169
:10172000C9028815990509F05CC04616570608F0ED
:1017300058C08091130190911401009741F48DB726
:101740009EB74091170150911801841B950BE81723
:10175000F90708F055C0F093C902E093C802F901F7
:1017600071836083A0CF8D919C91119712966C909C
:10177000129713967C901397A815B90559F56C012B
:1017800042E0C40ED11CCA14DB0420F1AC014A199A
:101790005B09DA011296159780F062827382518399
:1017A0004083D9016D937C93E114F10471F0D7016A
:1017B0001396FC93EE93129776CF22968C0F9D1F73
:1017C000F90191838083F301EFCFF093CB02E09393
:1017D000CA0269CF4816590608F42C017D01D301CD
:1017E0009ACFCB010E94210A7C01009749F0AE01FB
:1017F000B8010E94030CC8010E94BD0A870153CFA3
:1018000010E000E050CFFB01DC0102C001900D921E
:1018100041505040D8F70895FB01DC018D910190B3
:1018200080190110D9F3990B0895FB01DC01019097
:101830000D920020E1F7089510E0C2E6D0E004C068
:10184000FE010E941B0A2196C336D107C9F7F894FE
:10185000FFCF0B0C0D0A0908073132333435363708
:1018600038392A30230000CC028000000000005AE2
:1018700003BA02E702A7031803F6020A03000000F6
:1018800000AF02B302B70231323334353600456E51
:10189000746572207468652070617373776F726409
:1018A000203A20000D0A0050617373776F72642034
:1018B00069732076616C69640050617373776F722D
:0E18C0006420697320696E76616C69640000B3
:107E0000112484B714BE81FFF0D085E080938100F7
:107E100082E08093C00088E18093C10086E0809377
:107E2000C20080E18093C4008EE0C9D0259A86E02C
:107E300020E33CEF91E0309385002093840096BBD3
:107E4000B09BFECF1D9AA8958150A9F7CC24DD24C4
:107E500088248394B5E0AB2EA1E19A2EF3E0BF2EE7
:107E6000A2D0813461F49FD0082FAFD0023811F036
:107E7000013811F484E001C083E08DD089C08234E0
:107E800011F484E103C0853419F485E0A6D080C0E4
:107E9000853579F488D0E82EFF2485D0082F10E0AE
:107EA000102F00270E291F29000F111F8ED06801E7
:107EB0006FC0863521F484E090D080E0DECF843638
:107EC00009F040C070D06FD0082F6DD080E0C81688
:107ED00080E7D80618F4F601B7BEE895C0E0D1E017
:107EE00062D089930C17E1F7F0E0CF16F0E7DF06D8
:107EF00018F0F601B7BEE89568D007B600FCFDCFD4
:107F0000A601A0E0B1E02C9130E011968C91119780
:107F100090E0982F8827822B932B1296FA010C0160
:107F200087BEE89511244E5F5F4FF1E0A038BF0790
:107F300051F7F601A7BEE89507B600FCFDCF97BE46
:107F4000E89526C08437B1F42ED02DD0F82E2BD052
:107F50003CD0F601EF2C8F010F5F1F4F84911BD097
:107F6000EA94F801C1F70894C11CD11CFA94CF0C13
:107F7000D11C0EC0853739F428D08EE10CD085E9AC
:107F80000AD08FE07ACF813511F488E018D01DD067
:107F900080E101D065CF982F8091C00085FFFCCF94
:107FA0009093C60008958091C00087FFFCCF809118
:107FB000C00084FD01C0A8958091C6000895E0E648
:107FC000F0E098E1908380830895EDDF803219F02E
:107FD00088E0F5DFFFCF84E1DECF1F93182FE3DFCA
:107FE0001150E9F7F2DF1F91089580E0E8DFEE27F6
:047FF000FF270994CA
:027FFE00040479
:00000001FF
