:100000000C9461000C947E000C947E000C947E0095
:100010000C947E000C947E000C947E000C947E0068
:100020000C947E000C947E000C947E000C947E0058
:100030000C947E000C947E000C947E000C947E0048
:100040000C9491010C947E000C947E000C947E0024
:100050000C947E000C947E000C947E000C947E0028
:100060000C947E000C947E00000000002400270009
:100070002A0000000000250028002B0000000000DE
:1000800023002600290004040404040404040202DA
:100090000202020203030303030301020408102007
:1000A0004080010204081020010204081020000012
:1000B0000008000201000003040700000000000027
:1000C000000011241FBECFEFD8E0DEBFCDBF11E08E
:1000D000A0E0B1E0E2E9F7E002C005900D92AE3099
:1000E000B107D9F721E0AEE0B1E001C01D92A73120
:1000F000B207E1F70E94DB010C94C7030C940000E7
:10010000833081F028F4813099F08230A9F008958D
:100110008730A9F08830C9F08430B1F48091800034
:100120008F7D03C0809180008F7780938000089539
:1001300084B58F7784BD089584B58F7DFBCF809182
:10014000B0008F778093B00008958091B0008F7DCC
:10015000F9CFCF93DF93282F30E0F901E255FF4F1D
:100160008491F901E656FF4FD491F901EA57FF4F08
:10017000C491CC23A1F081110E948000EC2FF0E00B
:10018000EE0FFF1FE458FF4FA591B491EC91ED23C2
:1001900081E090E009F480E0DF91CF91089580E064
:1001A00090E0FACF1F93CF93DF93282F30E0F9012F
:1001B000E255FF4F8491F901E656FF4FD491F901C2
:1001C000EA57FF4FC491CC23A9F0162F81110E944A
:1001D0008000EC2FF0E0EE0FFF1FEE58FF4FA591CF
:1001E000B4918FB7F894EC91111108C0D095DE232B
:1001F000DC938FBFDF91CF911F910895DE2BF8CF55
:100200003FB7F8948091130190911401A0911501CA
:10021000B091160126B5A89B05C02F3F19F0019695
:10022000A11DB11D3FBFBA2FA92F982F8827BC0150
:10023000CD01620F711D811D911D42E0660F771F78
:10024000881F991F4A95D1F708958F929F92AF9278
:10025000BF92CF92DF92EF92FF921F93CF93DF93E3
:10026000182F0E9400014B015C0182E3C82ED12CA3
:10027000E12CF12C0E940001681979098A099B0977
:10028000683E734081059105A8F321E0C21AD108A8
:10029000E108F10888EE880E83E0981EA11CB11CCD
:1002A000C114D104E104F10429F7812F0E94A900AF
:1002B000892BD9F3C0910001D0E0FE01EB5FFE4F26
:1002C00060E080810E94D200CE010596173021F0B7
:1002D0001530E1F4CE01019666E070E00E949F03C4
:1002E00080930001E0910001F0E0EB5FFE4F61E0E0
:1002F0008081DF91CF911F91FF90EF90DF90CF90A1
:10030000BF90AF909F908F900C94D2000E94E40217
:1003100026E030E040E050E00E943C0360930001A2
:10032000E1CF1F920F920FB60F9211242F933F939C
:100330008F939F93AF93BF9380910F019091100182
:10034000A0911101B091120130910E0123E0230F11
:100350002D3758F50196A11DB11D20930E018093F4
:100360000F0190931001A0931101B093120180919D
:10037000130190911401A0911501B09116010196FD
:10038000A11DB11D8093130190931401A093150139
:10039000B0931601BF91AF919F918F913F912F9193
:1003A0000F900FBE0F901F90189526E8230F02960E
:1003B000A11DB11DD2CF789484B5826084BD84B56F
:1003C000816084BD85B5826085BD85B5816085BD50
:1003D00080916E00816080936E0010928100809108
:1003E0008100826080938100809181008160809390
:1003F0008100809180008160809380008091B100B5
:1004000084608093B1008091B00081608093B000DF
:1004100080917A00846080937A0080917A00826073
:1004200080937A0080917A00816080937A00809135
:100430007A00806880937A001092C100ABE0B1E04E
:100440002FE031E08D9190E0FC01E656FF4F4491A2
:100450008A579F4FFC0184918823C9F090E0880F50
:10046000991FFC01E859FF4FC591D491FC01EE584A
:10047000FF4F659174919FB7F8945881842F8095B0
:1004800085238883EB01E8814E2B48839FBF2A1781
:100490003B07C1F6A5E0B1E02BE031E08D9190E0A3
:1004A000FC01E656FF4F44918A579F4FFC0184910F
:1004B000882399F090E0880F991FFC01E859FF4FBD
:1004C000C591D491FC01EE58FF4F859194918FB75F
:1004D000F894E881E42BE8838FBF2A173B07F1F6F5
:1004E000E0910001F0E0EB5FFE4F61E080810E944F
:1004F000D200C0E0D0E087E00E94A900892B19F467
:1005000087E00E94250185E00E94A900892B19F44B
:1005100085E00E94250186E00E94A900892B19F43C
:1005200086E00E942501209731F30E940000E3CF6E
:100530008F929F92AF92BF92CF92DF92EF92FF92F3
:10054000CF93DF93EC01688179818A819B8161156A
:1005500071058105910521F464E279ED8BE597E061
:100560002DE133EF41E050E00E943C0349015A0184
:100570009B01AC01A7EAB1E40E945B036B017C0123
:10058000ACEEB4EFA50194010E946903C60ED71E1C
:10059000E81EF91EF7FE06C081E0C81AD108E1087E
:1005A00080E8F80AC882D982EA82FB82C701B601D4
:1005B0009F77DF91CF91FF90EF90DF90CF90BF902A
:1005C000AF909F908F9008958F929F92AF92BF921D
:1005D000CF92DF92EF92FF92609101017091020140
:1005E00080910301909104016115710581059105C8
:1005F00021F464E279ED8BE597E02DE133EF41E002
:1006000050E00E943C0349015A019B01AC01A7EA5A
:10061000B1E40E945B036B017C01ACEEB4EFA50179
:1006200094010E946903C60ED71EE81EF91EF7FE4C
:1006300006C081E0C81AD108E10880E8F80AC09233
:100640000101D0920201E0920301F0920401C7017E
:10065000B6019F77FF90EF90DF90CF90BF90AF9063
:100660009F908F9008956093010170930201809391
:100670000301909304010895052E97FB1EF4009446
:100680000E94530357FD07D00E946E0307FC03D05E
:100690004EF40C94530350954095309521953F4F5F
:1006A0004F4F5F4F089590958095709561957F4F5E
:1006B0008F4F9F4F08950E949003A59F900DB49F68
:1006C000900DA49F800D911D11240895B7FF0C94E7
:1006D0005B030E945B03821B930B0895A1E21A2E19
:1006E000AA1BBB1BFD010DC0AA1FBB1FEE1FFF1FD6
:1006F000A217B307E407F50720F0A21BB30BE40B26
:10070000F50B661F771F881F991F1A9469F760956C
:100710007095809590959B01AC01BD01CF01089526
:10072000A29FB001B39FC001A39F700D811D112432
:10073000911DB29F700D811D1124911D089597FB8D
:10074000072E16F4009407D077FD09D00E94B3035A
:1007500007FC05D03EF4909581959F4F08957095C4
:1007600061957F4F0895AA1BBB1B51E107C0AA1FCB
:10077000BB1FA617B70710F0A61BB70B881F991F42
:100780005A95A9F780959095BC01CD010895F894EC
:02079000FFCF99
:0E079200030100000008090A0B0C0D07060504
:00000001FF
