:100000000C945C000C9479000C9479000C947900A9
:100010000C9479000C9479000C9479000C9479007C
:100020000C9479000C9479000C9479000C9479006C
:100030000C9479000C9479000C9479000C9479005C
:100040000C94EC000C9479000C9479000C947900D9
:100050000C9479000C9479000C9479000C9479003C
:100060000C9479000C947900000000002400270013
:100070002A0000000000250028002B0004040404CE
:100080000404040402020202020203030303030342
:10009000010204081020408001020408102001021F
:1000A00004081020000000080002010000030407FB
:1000B000000000000000000011241FBECFEFD8E0B8
:1000C000DEBFCDBF11E0A0E0B1E0E4ECF3E002C0A0
:1000D00005900D92AA30B107D9F721E0AAE0B1E06E
:1000E00001C01D92A331B207E1F70E9436010C94C2
:1000F000E0010C94000090E0FC01EC55FF4F2491CE
:10010000FC01E057FF4F3491FC01E458FF4FE491AC
:10011000EE23C9F0222339F0233001F1A8F4213075
:1001200019F1223029F1F0E0EE0FFF1FEE58FF4FDA
:10013000A591B4918FB7F894EC91611126C03095D8
:100140003E233C938FBF08952730A9F02830C9F093
:10015000243049F7809180008F7D03C0809180001A
:100160008F7780938000DFCF84B58F7784BDDBCF1E
:1001700084B58F7DFBCF8091B0008F778093B000E6
:10018000D2CF8091B0008F7DF9CF3E2BDACF3FB731
:10019000F89480910F0190911001A0911101B091FC
:1001A000120126B5A89B05C02F3F19F00196A11D8D
:1001B000B11D3FBFBA2FA92F982F8827BC01CD01B1
:1001C000620F711D811D911D42E0660F771F881F10
:1001D000991F4A95D1F708951F920F920FB60F926B
:1001E00011242F933F938F939F93AF93BF9380914D
:1001F0000B0190910C01A0910D01B0910E01309175
:100200000A0123E0230F2D3758F50196A11DB11DDA
:1002100020930A0180930B0190930C01A0930D0190
:10022000B0930E0180910F0190911001A0911101E6
:10023000B09112010196A11DB11D80930F01909301
:100240001001A0931101B0931201BF91AF919F9142
:100250008F913F912F910F900FBE0F901F90189587
:1002600026E8230F0296A11DB11DD2CF789484B544
:10027000826084BD84B5816084BD85B5826085BDA2
:1002800085B5816085BD80916E00816080936E0030
:100290001092810080918100826080938100809122
:1002A00081008160809381008091800081608093D3
:1002B00080008091B10084608093B1008091B00093
:1002C00081608093B00080917A00846080937A008E
:1002D00080917A00826080937A0080917A008160B8
:1002E00080937A0080917A00806880937A001092DF
:1002F000C1002BE030E0F901E057FF4F4491F901D4
:10030000E458FF4F8491882399F090E0880F991F5B
:10031000FC01E859FF4FA591B491FC01EE58FF4F45
:10032000859194918FB7F894EC91E42BEC938FBF67
:100330002F5F3F4F2E303105F1F680E0A82E80E090
:10034000B82EC6E0D1E000E011E0999061E0892D7F
:100350000E947B00F801C190D1908F010D2C000C00
:10036000EE08FF080E94C7002B013C01C114D10414
:10037000E104F104B9F00E94C70064197509860907
:100380009709683E73408105910580F3F1E0CF1A2B
:10039000D108E108F10828EE420E23E0521E611C4C
:1003A000711CE4CF60E0892D0E947B00F1E0C93030
:1003B000DF0759F6A114B10421F20E940000C1CF59
:0403C000F894FFCFDF
:0A03C400983A881310270D0C0B0067
:00000001FF
